:100A59000A083F065B4F666D7D077F6F0412080425
:020A6900020188
:080914008F198E188D178C1647
:10091C00E4F51DF51CF51BF51AAF19AE18AD17ACA7
:10092C0016AB1DAA1CA91BA81AC3120903504CE430
:10093C00F521F520F51FF51EE47FF47E01FDFCABDF
:10094C0021AA20A91FA81EC31209035017E52124B0
:10095C0001F521E43520F520E4351FF51FE4351EA3
:10096C00F51E80D4E51D2401F51DE4351CF51CE4B1
:0B097C00351BF51BE4351AF51A809EB0
:01098700224D
:0A09DE008E278F288B298A2A892B87
:1009E800E4F52CAE27AF287C007D0A1208AEAF05CF
:1009F800AB29AA2AA92BAE2C052C8E82758300EF71
:100A080012088CAE27AF287C007D0A1208AE8E270C
:0F0A18008F28D3E5289400E527940050C6AF2C13
:010A270022AC
:07098800AF22EF3395E0FE02
:10098F007B007A0079231209DEA907900000E4FFAB
:10099F00FEE4FDFCE9FBC3ED9BEC9400501C7423BB
:1009AF002DF8E62408F8E6F58074122DF8E6F5A088
:1009BF00E4F5A00DBD00010C80DA0FBF00010EEFB2
:0E09CF0064C84E70CCA3E582641E458370C0E0
:0109DD0022F7
:100A2800E4F522F580F5A0C3E5226480948A500796
:100A3800120988052280F015221522C3E522648058
:100A480094804007120988152280F005220522802B
:010A5800D6C7
:03000000020800F3
:0C080000787FE4F6D8FD75812C020847D3
:10088C00F8BB010DE58229F582E5833AF583E8F0A2
:10089C00225006E92582C8F622BBFE05E92582C84E
:0208AC00F22236
:1008AE00BC000BBE0029EF8DF084FFADF022E4CC2E
:1008BE00F875F008EF2FFFEE33FEEC33FCEE9DECF7
:1008CE00984005FCEE9DFE0FD5F0E9E4CEFD22ED3D
:1008DE00F8F5F0EE8420D21CFEADF075F008EF2F87
:1008EE00FFED33FD4007985006D5F0F222C398FD78
:0508FE000FD5F0EA2215
:10090300EB9FF5F0EA9E42F0E99D42F0E89C45F04A
:0109130022C1
:10080C00020A28E493A3F8E493A34003F68001F2D0
:10081C0008DFF48029E493A3F85407240CC8C333ED
:10082C00C4540F4420C8834004F456800146F6DFBC
:10083C00E4800B0102040810204080900A59E47EE9
:10084C00019360BCA3FF543F30E509541FFEE493B1
:10085C00A360010ECF54C025E060A840B8E493A378
:10086C00FAE493A3F8E493A3C8C582C8CAC583CAA3
:10087C00F0A3C8C582C8CAC583CADFE9DEE780BE5B
:010A6B00008A
:00000001FF
