:100A66000A1E3F065B4F666D7D077F6F04280804EC
:020A760002017B
:080914008F158E148D138C1257
:10091C00E4F519F518F517F516AF15AE14AD13ACC3
:10092C0012AB19AA18A917A816C3120903504CE444
:10093C00F51DF51CF51BF51AE47FF47E01FDFCABEF
:10094C001DAA1CA91BA81AC31209035017E51D24C4
:10095C0001F51DE4351CF51CE4351BF51BE4351ABB
:10096C00F51A80D4E5192401F519E43518F518E4C5
:0B097C003517F517E43516F516809EC0
:01098700224D
:0A09F4008E128F138B148A158916DA
:1009FE00E4F517AE12AF137C007D0A1208AEAF05F8
:100A0E00AB14AA15A916AE1705178E82758300EFC3
:100A1E0012088CAE12AF137C007D0A1208AE8E1235
:0F0A2E008F13D3E5139400E512940050C6AF1751
:010A3D002296
:100988007B007A00790D1209F48F11E4F509F50A54
:10099800E4F50BF50CC3E50C9511E50B9400503A02
:1009A800E4F5A0740D250CF8E6241EF8E6F5807F22
:1009B800077E007D007C001209147428250CF8E6D7
:1009C800F5A0E4FFFE0FBF00010EEF64644E70F562
:1009D800050CE50C70BF050B80BB050AE50A700223
:0B09E8000509C394C8E509940040A570
:0109F30022E1
:100A79007E01EF8EF0A4FD743F2EF8A6050EBE0B85
:010A8900F17B
:010A8A002249
:100A3E0078307609E6FF120A79E4F580F5A0E4F540
:100A4E000874402508F8E6FF7E001209880508E5BF
:080A5E0008C3940A40EB80E696
:03000000020800F3
:0C080000787FE4F6D8FD75812B020847D4
:10088C00F8BB010DE58229F582E5833AF583E8F0A2
:10089C00225006E92582C8F622BBFE05E92582C84E
:0208AC00F22236
:1008AE00BC000BBE0029EF8DF084FFADF022E4CC2E
:1008BE00F875F008EF2FFFEE33FEEC33FCEE9DECF7
:1008CE00984005FCEE9DFE0FD5F0E9E4CEFD22ED3D
:1008DE00F8F5F0EE8420D21CFEADF075F008EF2F87
:1008EE00FFED33FD4007985006D5F0F222C398FD78
:0508FE000FD5F0EA2215
:10090300EB9FF5F0EA9E42F0E99D42F0E89C45F04A
:0109130022C1
:10080C00020A3EE493A3F8E493A34003F68001F2BA
:10081C0008DFF48029E493A3F85407240CC8C333ED
:10082C00C4540F4420C8834004F456800146F6DFBC
:10083C00E4800B0102040810204080900A66E47EDC
:10084C00019360BCA3FF543F30E509541FFEE493B1
:10085C00A360010ECF54C025E060A840B8E493A378
:10086C00FAE493A3F8E493A3C8C582C8CAC583CAA3
:10087C00F0A3C8C582C8CAC583CADFE9DEE780BE5B
:010A7800007D
:00000001FF
