:0C08D1000A08C0F9A4B0999282F87F6F69
:0B088C00740829F8E6F5807FD07E0795
:10089700E4FDFCC3ED9FEC9E5015E4FBFA0BBB0097
:0F08A700010ABA04F8BBB0F50DBD00010C80E4E6
:0108B600221F
:1008B70075A0FEE4F912088C09B90AF97908E9D399
:0A08C700940040EF12088C1980F431
:03000000020800F3
:0C080000787FE4F6D8FD758111020847EE
:10080C000208B7E493A3F8E493A34003F68001F243
:10081C0008DFF48029E493A3F85407240CC8C333ED
:10082C00C4540F4420C8834004F456800146F6DFBC
:10083C00E4800B01020408102040809008D1E47E73
:10084C00019360BCA3FF543F30E509541FFEE493B1
:10085C00A360010ECF54C025E060A840B8E493A378
:10086C00FAE493A3F8E493A3C8C582C8CAC583CAA3
:10087C00F0A3C8C582C8CAC583CADFE9DEE780BE5B
:0108DD00001A
:00000001FF
