:0A097B00A5FD6742DF9A841BC73117
:0C0962007F077E017D02DDFEDEFCDFFA77
:01096E002266
:1008F60078097C007D007BFF7A09797B7E007F0A80
:100906001208D07F09EFF4603FAE07AD06750860A8
:1009160074A92508F8E6FE050874A92508F8E6FC7A
:09092600C3EE9CFEC3948040194D
:10092F008C1374A82508F8E6FC74A92508F8A6040A
:09093F0074A82508F8A613150898
:10094800ED70CB1F80BD750860E508C3946A50B18F
:0A095800850880120962050880EF8F
:0300000002096F83
:0C096F00787FE4F6D8FD7581130208F6CD
:10080000E709F608DFFA8046E709F208DFFA803EDA
:1008100088828C83E709F0A3DFFA8032E309F608C7
:10082000DFFA8078E309F208DFFA807088828C832F
:10083000E309F0A3DFFA806489828A83E0A3F608E3
:10084000DFFA805889828A83E0A3F208DFFA804CBD
:1008500080D280FA80C680D4806980F28033801094
:1008600080A680EA809A80A880DA80E280CA8033FD
:1008700089828A83ECFAE493A3C8C582C8CCC58375
:10088000CCF0A3C8C582C8CCC583CCDFE9DEE78045
:100890000D89828A83E493A3F608DFF9ECFAA9F0C4
:1008A000EDFB2289828A83ECFAE0A3C8C582C8CC1A
:1008B000C583CCF0A3C8C582C8CCC583CCDFEADE33
:1008C000E880DB89828A83E493A3F208DFF980CC95
:1008D00088F0EF60010E4E60C388F0ED2402B4048E
:1008E0000050B9F582EB2402B4040050AF23234535
:0608F00082239008507302
:00000001FF
